{
  "_format": "hh-sol-artifact-1",
  "contractName": "Presale",
  "sourceName": "contracts/Presale.sol",
  "abi": [
    {
      "inputs": [
        {
          "internalType": "address",
          "name": "_projectOwner",
          "type": "address"
        },
        {
          "internalType": "address",
          "name": "_tokenAddress",
          "type": "address"
        },
        {
          "internalType": "uint256",
          "name": "_presaleTokenAmount",
          "type": "uint256"
        },
        {
          "internalType": "uint256",
          "name": "_listingTokenAmount",
          "type": "uint256"
        },
        {
          "internalType": "uint256",
          "name": "_presalePricePerETH",
          "type": "uint256"
        },
        {
          "internalType": "uint256",
          "name": "_listingPricePerETH",
          "type": "uint256"
        },
        {
          "internalType": "uint256",
          "name": "_startBlock",
          "type": "uint256"
        },
        {
          "internalType": "uint256",
          "name": "_endBlock",
          "type": "uint256"
        },
        {
          "internalType": "uint256",
          "name": "_softCap",
          "type": "uint256"
        },
        {
          "internalType": "uint256",
          "name": "_hardCap",
          "type": "uint256"
        }
      ],
      "stateMutability": "nonpayable",
      "type": "constructor"
    },
    {
      "anonymous": false,
      "inputs": [
        {
          "indexed": true,
          "internalType": "address",
          "name": "previousOwner",
          "type": "address"
        },
        {
          "indexed": true,
          "internalType": "address",
          "name": "newOwner",
          "type": "address"
        }
      ],
      "name": "OwnershipTransferred",
      "type": "event"
    },
    {
      "inputs": [],
      "name": "endBlock",
      "outputs": [
        {
          "internalType": "uint256",
          "name": "",
          "type": "uint256"
        }
      ],
      "stateMutability": "view",
      "type": "function"
    },
    {
      "inputs": [],
      "name": "hardCap",
      "outputs": [
        {
          "internalType": "uint256",
          "name": "",
          "type": "uint256"
        }
      ],
      "stateMutability": "view",
      "type": "function"
    },
    {
      "inputs": [],
      "name": "listingPricePerETH",
      "outputs": [
        {
          "internalType": "uint256",
          "name": "",
          "type": "uint256"
        }
      ],
      "stateMutability": "view",
      "type": "function"
    },
    {
      "inputs": [],
      "name": "listingTokenAmount",
      "outputs": [
        {
          "internalType": "uint256",
          "name": "",
          "type": "uint256"
        }
      ],
      "stateMutability": "view",
      "type": "function"
    },
    {
      "inputs": [],
      "name": "owner",
      "outputs": [
        {
          "internalType": "address",
          "name": "",
          "type": "address"
        }
      ],
      "stateMutability": "view",
      "type": "function"
    },
    {
      "inputs": [],
      "name": "presalePricePerETH",
      "outputs": [
        {
          "internalType": "uint256",
          "name": "",
          "type": "uint256"
        }
      ],
      "stateMutability": "view",
      "type": "function"
    },
    {
      "inputs": [],
      "name": "presaleTokenAmount",
      "outputs": [
        {
          "internalType": "uint256",
          "name": "",
          "type": "uint256"
        }
      ],
      "stateMutability": "view",
      "type": "function"
    },
    {
      "inputs": [],
      "name": "projectOwner",
      "outputs": [
        {
          "internalType": "address",
          "name": "",
          "type": "address"
        }
      ],
      "stateMutability": "view",
      "type": "function"
    },
    {
      "inputs": [],
      "name": "renounceOwnership",
      "outputs": [],
      "stateMutability": "nonpayable",
      "type": "function"
    },
    {
      "inputs": [],
      "name": "softCap",
      "outputs": [
        {
          "internalType": "uint256",
          "name": "",
          "type": "uint256"
        }
      ],
      "stateMutability": "view",
      "type": "function"
    },
    {
      "inputs": [],
      "name": "startBlock",
      "outputs": [
        {
          "internalType": "uint256",
          "name": "",
          "type": "uint256"
        }
      ],
      "stateMutability": "view",
      "type": "function"
    },
    {
      "inputs": [],
      "name": "tokenAddress",
      "outputs": [
        {
          "internalType": "address",
          "name": "",
          "type": "address"
        }
      ],
      "stateMutability": "view",
      "type": "function"
    },
    {
      "inputs": [
        {
          "internalType": "address",
          "name": "newOwner",
          "type": "address"
        }
      ],
      "name": "transferOwnership",
      "outputs": [],
      "stateMutability": "nonpayable",
      "type": "function"
    }
  ],
  "bytecode": "0x60806040523480156200001157600080fd5b5060405162000b5738038062000b578339818101604052810190620000379190620001e7565b600062000049620001b160201b60201c565b9050806000806101000a81548173ffffffffffffffffffffffffffffffffffffffff021916908373ffffffffffffffffffffffffffffffffffffffff1602179055508073ffffffffffffffffffffffffffffffffffffffff16600073ffffffffffffffffffffffffffffffffffffffff167f8be0079c531659141344cd1fd0a4f28419497f9722a3daafe3b4186f6b6457e060405160405180910390a35089600160006101000a81548173ffffffffffffffffffffffffffffffffffffffff021916908373ffffffffffffffffffffffffffffffffffffffff16021790555088600260006101000a81548173ffffffffffffffffffffffffffffffffffffffff021916908373ffffffffffffffffffffffffffffffffffffffff1602179055508760038190555086600481905550856005819055508460068190555083600781905550826008819055508160098190555080600a819055505050505050505050505062000349565b600033905090565b600081519050620001ca8162000315565b92915050565b600081519050620001e1816200032f565b92915050565b6000806000806000806000806000806101408b8d0312156200020857600080fd5b6000620002188d828e01620001b9565b9a505060206200022b8d828e01620001b9565b99505060406200023e8d828e01620001d0565b9850506060620002518d828e01620001d0565b9750506080620002648d828e01620001d0565b96505060a0620002778d828e01620001d0565b95505060c06200028a8d828e01620001d0565b94505060e06200029d8d828e01620001d0565b935050610100620002b18d828e01620001d0565b925050610120620002c58d828e01620001d0565b9150509295989b9194979a5092959850565b6000620002e482620002eb565b9050919050565b600073ffffffffffffffffffffffffffffffffffffffff82169050919050565b6000819050919050565b6200032081620002d7565b81146200032c57600080fd5b50565b6200033a816200030b565b81146200034657600080fd5b50565b6107fe80620003596000396000f3fe608060405234801561001057600080fd5b50600436106100cf5760003560e01c80639d76ea581161008c578063dddd133111610066578063dddd1331146101ce578063ec015297146101ec578063f2fde38b1461020a578063fb86a40414610226576100cf565b80639d76ea5814610174578063a4475ce414610192578063c0633f0b146101b0576100cf565b8063083c6323146100d457806348cd4cb1146100f2578063715018a6146101105780638b250eff1461011a5780638da5cb5b14610138578063906a26e014610156575b600080fd5b6100dc610244565b6040516100e991906106d1565b60405180910390f35b6100fa61024a565b60405161010791906106d1565b60405180910390f35b610118610250565b005b61012261038a565b60405161012f91906106d1565b60405180910390f35b610140610390565b60405161014d9190610676565b60405180910390f35b61015e6103b9565b60405161016b91906106d1565b60405180910390f35b61017c6103bf565b6040516101899190610676565b60405180910390f35b61019a6103e5565b6040516101a79190610676565b60405180910390f35b6101b861040b565b6040516101c591906106d1565b60405180910390f35b6101d6610411565b6040516101e391906106d1565b60405180910390f35b6101f4610417565b60405161020191906106d1565b60405180910390f35b610224600480360381019061021f91906105e9565b61041d565b005b61022e6105c6565b60405161023b91906106d1565b60405180910390f35b60085481565b60075481565b6102586105cc565b73ffffffffffffffffffffffffffffffffffffffff16610276610390565b73ffffffffffffffffffffffffffffffffffffffff16146102cc576040517f08c379a00000000000000000000000000000000000000000000000000000000081526004016102c3906106b1565b60405180910390fd5b600073ffffffffffffffffffffffffffffffffffffffff1660008054906101000a900473ffffffffffffffffffffffffffffffffffffffff1673ffffffffffffffffffffffffffffffffffffffff167f8be0079c531659141344cd1fd0a4f28419497f9722a3daafe3b4186f6b6457e060405160405180910390a360008060006101000a81548173ffffffffffffffffffffffffffffffffffffffff021916908373ffffffffffffffffffffffffffffffffffffffff160217905550565b60035481565b60008060009054906101000a900473ffffffffffffffffffffffffffffffffffffffff16905090565b60095481565b600260009054906101000a900473ffffffffffffffffffffffffffffffffffffffff1681565b600160009054906101000a900473ffffffffffffffffffffffffffffffffffffffff1681565b60065481565b60055481565b60045481565b6104256105cc565b73ffffffffffffffffffffffffffffffffffffffff16610443610390565b73ffffffffffffffffffffffffffffffffffffffff1614610499576040517f08c379a0000000000000000000000000000000000000000000000000000000008152600401610490906106b1565b60405180910390fd5b600073ffffffffffffffffffffffffffffffffffffffff168173ffffffffffffffffffffffffffffffffffffffff161415610509576040517f08c379a000000000000000000000000000000000000000000000000000000000815260040161050090610691565b60405180910390fd5b8073ffffffffffffffffffffffffffffffffffffffff1660008054906101000a900473ffffffffffffffffffffffffffffffffffffffff1673ffffffffffffffffffffffffffffffffffffffff167f8be0079c531659141344cd1fd0a4f28419497f9722a3daafe3b4186f6b6457e060405160405180910390a3806000806101000a81548173ffffffffffffffffffffffffffffffffffffffff021916908373ffffffffffffffffffffffffffffffffffffffff16021790555050565b600a5481565b600033905090565b6000813590506105e3816107b1565b92915050565b6000602082840312156105fb57600080fd5b6000610609848285016105d4565b91505092915050565b61061b816106fd565b82525050565b600061062e6026836106ec565b915061063982610739565b604082019050919050565b60006106516020836106ec565b915061065c82610788565b602082019050919050565b6106708161072f565b82525050565b600060208201905061068b6000830184610612565b92915050565b600060208201905081810360008301526106aa81610621565b9050919050565b600060208201905081810360008301526106ca81610644565b9050919050565b60006020820190506106e66000830184610667565b92915050565b600082825260208201905092915050565b60006107088261070f565b9050919050565b600073ffffffffffffffffffffffffffffffffffffffff82169050919050565b6000819050919050565b7f4f776e61626c653a206e6577206f776e657220697320746865207a65726f206160008201527f6464726573730000000000000000000000000000000000000000000000000000602082015250565b7f4f776e61626c653a2063616c6c6572206973206e6f7420746865206f776e6572600082015250565b6107ba816106fd565b81146107c557600080fd5b5056fea26469706673582212206087137d81158f171c6387082643df3611451039d0d499a71af4ca6400e5430364736f6c63430008040033",
  "linkReferences": {},
  "deployedLinkReferences": {}
}