{
  "_format": "hh-sol-artifact-1",
  "contractName": "PresaleFactory",
  "sourceName": "contracts/PresaleFactory.sol",
  "abi": [
    {
      "inputs": [
        {
          "internalType": "address",
          "name": "_nativeToken",
          "type": "address"
        }
      ],
      "stateMutability": "nonpayable",
      "type": "constructor"
    },
    {
      "anonymous": false,
      "inputs": [
        {
          "indexed": true,
          "internalType": "address",
          "name": "previousOwner",
          "type": "address"
        },
        {
          "indexed": true,
          "internalType": "address",
          "name": "newOwner",
          "type": "address"
        }
      ],
      "name": "OwnershipTransferred",
      "type": "event"
    },
    {
      "anonymous": false,
      "inputs": [
        {
          "indexed": false,
          "internalType": "uint256",
          "name": "_id",
          "type": "uint256"
        },
        {
          "indexed": false,
          "internalType": "address",
          "name": "_presaleAddress",
          "type": "address"
        }
      ],
      "name": "PresaleCreated",
      "type": "event"
    },
    {
      "anonymous": false,
      "inputs": [
        {
          "indexed": false,
          "internalType": "address",
          "name": "_staker",
          "type": "address"
        },
        {
          "indexed": false,
          "internalType": "uint256",
          "name": "_stakedAmount",
          "type": "uint256"
        }
      ],
      "name": "Staked",
      "type": "event"
    },
    {
      "anonymous": false,
      "inputs": [
        {
          "indexed": false,
          "internalType": "address",
          "name": "_unstaker",
          "type": "address"
        },
        {
          "indexed": false,
          "internalType": "uint256",
          "name": "_unstakedAmount",
          "type": "uint256"
        }
      ],
      "name": "Unstaked",
      "type": "event"
    },
    {
      "inputs": [
        {
          "internalType": "address",
          "name": "_projectOwner",
          "type": "address"
        },
        {
          "internalType": "address",
          "name": "_tokenAddress",
          "type": "address"
        },
        {
          "internalType": "uint256",
          "name": "_presaleTokenAmount",
          "type": "uint256"
        },
        {
          "internalType": "uint256",
          "name": "_listingTokenAmount",
          "type": "uint256"
        },
        {
          "internalType": "uint256",
          "name": "_presalePricePerETH",
          "type": "uint256"
        },
        {
          "internalType": "uint256",
          "name": "_listingPricePerETH",
          "type": "uint256"
        },
        {
          "internalType": "uint256",
          "name": "_startBlock",
          "type": "uint256"
        },
        {
          "internalType": "uint256",
          "name": "_endBlock",
          "type": "uint256"
        },
        {
          "internalType": "uint256",
          "name": "_softCap",
          "type": "uint256"
        },
        {
          "internalType": "uint256",
          "name": "_hardCap",
          "type": "uint256"
        }
      ],
      "name": "createPresale",
      "outputs": [
        {
          "internalType": "uint256",
          "name": "",
          "type": "uint256"
        },
        {
          "internalType": "address",
          "name": "",
          "type": "address"
        }
      ],
      "stateMutability": "nonpayable",
      "type": "function"
    },
    {
      "inputs": [],
      "name": "nativeToken",
      "outputs": [
        {
          "internalType": "address",
          "name": "",
          "type": "address"
        }
      ],
      "stateMutability": "view",
      "type": "function"
    },
    {
      "inputs": [],
      "name": "owner",
      "outputs": [
        {
          "internalType": "address",
          "name": "",
          "type": "address"
        }
      ],
      "stateMutability": "view",
      "type": "function"
    },
    {
      "inputs": [
        {
          "internalType": "uint256",
          "name": "",
          "type": "uint256"
        }
      ],
      "name": "presaleMap",
      "outputs": [
        {
          "internalType": "address",
          "name": "",
          "type": "address"
        }
      ],
      "stateMutability": "view",
      "type": "function"
    },
    {
      "inputs": [],
      "name": "presaleTotal",
      "outputs": [
        {
          "internalType": "uint256",
          "name": "",
          "type": "uint256"
        }
      ],
      "stateMutability": "view",
      "type": "function"
    },
    {
      "inputs": [],
      "name": "renounceOwnership",
      "outputs": [],
      "stateMutability": "nonpayable",
      "type": "function"
    },
    {
      "inputs": [
        {
          "internalType": "uint256",
          "name": "_stakeAmount",
          "type": "uint256"
        }
      ],
      "name": "stake",
      "outputs": [
        {
          "internalType": "uint256",
          "name": "",
          "type": "uint256"
        }
      ],
      "stateMutability": "nonpayable",
      "type": "function"
    },
    {
      "inputs": [
        {
          "internalType": "address",
          "name": "",
          "type": "address"
        }
      ],
      "name": "stakedAmount",
      "outputs": [
        {
          "internalType": "uint256",
          "name": "",
          "type": "uint256"
        }
      ],
      "stateMutability": "view",
      "type": "function"
    },
    {
      "inputs": [
        {
          "internalType": "address",
          "name": "",
          "type": "address"
        }
      ],
      "name": "stakedBlock",
      "outputs": [
        {
          "internalType": "uint256",
          "name": "",
          "type": "uint256"
        }
      ],
      "stateMutability": "view",
      "type": "function"
    },
    {
      "inputs": [
        {
          "internalType": "address",
          "name": "newOwner",
          "type": "address"
        }
      ],
      "name": "transferOwnership",
      "outputs": [],
      "stateMutability": "nonpayable",
      "type": "function"
    },
    {
      "inputs": [
        {
          "internalType": "uint256",
          "name": "_unstakeAmount",
          "type": "uint256"
        }
      ],
      "name": "unstake",
      "outputs": [
        {
          "internalType": "uint256",
          "name": "",
          "type": "uint256"
        }
      ],
      "stateMutability": "nonpayable",
      "type": "function"
    }
  ],
  "bytecode": "0x608060405260006002553480156200001657600080fd5b50604051620023773803806200237783398181016040528101906200003c919062000153565b60006200004e6200013460201b60201c565b9050806000806101000a81548173ffffffffffffffffffffffffffffffffffffffff021916908373ffffffffffffffffffffffffffffffffffffffff1602179055508073ffffffffffffffffffffffffffffffffffffffff16600073ffffffffffffffffffffffffffffffffffffffff167f8be0079c531659141344cd1fd0a4f28419497f9722a3daafe3b4186f6b6457e060405160405180910390a35080600160006101000a81548173ffffffffffffffffffffffffffffffffffffffff021916908373ffffffffffffffffffffffffffffffffffffffff16021790555050620001cd565b600033905090565b6000815190506200014d81620001b3565b92915050565b6000602082840312156200016657600080fd5b600062000176848285016200013c565b91505092915050565b60006200018c8262000193565b9050919050565b600073ffffffffffffffffffffffffffffffffffffffff82169050919050565b620001be816200017f565b8114620001ca57600080fd5b50565b61219a80620001dd6000396000f3fe60806040523480156200001157600080fd5b5060043610620000b85760003560e01c8063a694fc3a116200007b578063a694fc3a146200018d578063db130a8114620001c3578063dc1d85f614620001fa578063e1758bd8146200021c578063f2fde38b146200023e578063f9931855146200025e57620000b8565b80632e17de7814620000bd5780633d46f45414620000f3578063715018a614620001295780638da5cb5b146200013557806393457ed71462000157575b600080fd5b620000db6004803603810190620000d5919062000f57565b62000294565b604051620000ea9190620012a2565b60405180910390f35b6200011160048036038101906200010b919062000e0f565b62000492565b604051620001209190620012a2565b60405180910390f35b62000133620004aa565b005b6200013f620005eb565b6040516200014e919062001094565b60405180910390f35b6200017560048036038101906200016f919062000f57565b62000614565b60405162000184919062001094565b60405180910390f35b620001ab6004803603810190620001a5919062000f57565b62000647565b604051620001ba9190620012a2565b60405180910390f35b620001e16004803603810190620001db919062000e3b565b62000948565b604051620001f1929190620012bf565b60405180910390f35b6200020462000b76565b604051620002139190620012a2565b60405180910390f35b6200022662000b7c565b60405162000235919062001094565b60405180910390f35b6200025c600480360381019062000256919062000e0f565b62000ba2565b005b6200027c600480360381019062000276919062000e0f565b62000d55565b6040516200028b9190620012a2565b60405180910390f35b6000620002f38260056000620002a962000d6d565b73ffffffffffffffffffffffffffffffffffffffff1673ffffffffffffffffffffffffffffffffffffffff1681526020019081526020016000205462000d7590919063ffffffff16565b600560006200030162000d6d565b73ffffffffffffffffffffffffffffffffffffffff1673ffffffffffffffffffffffffffffffffffffffff16815260200190815260200160002081905550600160009054906101000a900473ffffffffffffffffffffffffffffffffffffffff1673ffffffffffffffffffffffffffffffffffffffff1663a9059cbb6200038762000d6d565b846040518363ffffffff1660e01b8152600401620003a7929190620011cb565b602060405180830381600087803b158015620003c257600080fd5b505af1158015620003d7573d6000803e3d6000fd5b505050506040513d601f19601f82011682018060405250810190620003fd919062000f2b565b507f0f5bb82176feb1b5e747e28471aa92156a04d9f3ab9f45f28e2d704232b93f756200042962000d6d565b836040516200043a929190620011cb565b60405180910390a1600560006200045062000d6d565b73ffffffffffffffffffffffffffffffffffffffff1673ffffffffffffffffffffffffffffffffffffffff168152602001908152602001600020549050919050565b60046020528060005260406000206000915090505481565b620004b462000d6d565b73ffffffffffffffffffffffffffffffffffffffff16620004d4620005eb565b73ffffffffffffffffffffffffffffffffffffffff16146200052d576040517f08c379a000000000000000000000000000000000000000000000000000000000815260040162000524906200125e565b60405180910390fd5b600073ffffffffffffffffffffffffffffffffffffffff1660008054906101000a900473ffffffffffffffffffffffffffffffffffffffff1673ffffffffffffffffffffffffffffffffffffffff167f8be0079c531659141344cd1fd0a4f28419497f9722a3daafe3b4186f6b6457e060405160405180910390a360008060006101000a81548173ffffffffffffffffffffffffffffffffffffffff021916908373ffffffffffffffffffffffffffffffffffffffff160217905550565b60008060009054906101000a900473ffffffffffffffffffffffffffffffffffffffff16905090565b60036020528060005260406000206000915054906101000a900473ffffffffffffffffffffffffffffffffffffffff1681565b600081600160009054906101000a900473ffffffffffffffffffffffffffffffffffffffff1673ffffffffffffffffffffffffffffffffffffffff1663dd62ed3e6200069262000d6d565b306040518363ffffffff1660e01b8152600401620006b2929190620010b1565b60206040518083038186803b158015620006cb57600080fd5b505afa158015620006e0573d6000803e3d6000fd5b505050506040513d601f19601f8201168201806040525081019062000706919062000f83565b10156200074a576040517f08c379a000000000000000000000000000000000000000000000000000000000815260040162000741906200121a565b60405180910390fd5b620007a782600560006200075d62000d6d565b73ffffffffffffffffffffffffffffffffffffffff1673ffffffffffffffffffffffffffffffffffffffff1681526020019081526020016000205462000d8d90919063ffffffff16565b60056000620007b562000d6d565b73ffffffffffffffffffffffffffffffffffffffff1673ffffffffffffffffffffffffffffffffffffffff16815260200190815260200160002081905550600160009054906101000a900473ffffffffffffffffffffffffffffffffffffffff1673ffffffffffffffffffffffffffffffffffffffff166323b872dd6200083b62000d6d565b30856040518463ffffffff1660e01b81526004016200085d93929190620010de565b602060405180830381600087803b1580156200087857600080fd5b505af11580156200088d573d6000803e3d6000fd5b505050506040513d601f19601f82011682018060405250810190620008b3919062000f2b565b507f9e71bc8eea02a63969f509818f2dafb9254532904319f9dbda79b67bd34a5f3d620008df62000d6d565b83604051620008f0929190620011cb565b60405180910390a1600560006200090662000d6d565b73ffffffffffffffffffffffffffffffffffffffff1673ffffffffffffffffffffffffffffffffffffffff168152602001908152602001600020549050919050565b6000806200095562000d6d565b73ffffffffffffffffffffffffffffffffffffffff1662000975620005eb565b73ffffffffffffffffffffffffffffffffffffffff1614620009ce576040517f08c379a0000000000000000000000000000000000000000000000000000000008152600401620009c5906200125e565b60405180910390fd5b84861062000a13576040517f08c379a000000000000000000000000000000000000000000000000000000000815260040162000a0a9062001280565b60405180910390fd5b84861062000a58576040517f08c379a000000000000000000000000000000000000000000000000000000000815260040162000a4f906200123c565b60405180910390fd5b60008c8c8c8c8c8c8c8c8c8c60405162000a729062000da5565b62000a879a999897969594939291906200111b565b604051809103906000f08015801562000aa4573d6000803e3d6000fd5b509050600060025490506000829050806003600084815260200190815260200160002060006101000a81548173ffffffffffffffffffffffffffffffffffffffff021916908373ffffffffffffffffffffffffffffffffffffffff16021790555062000b1d600160025462000d8d90919063ffffffff16565b6002819055507fa63e1b89b8708e2f6d5297fc6c5135793e89946161d4a652acac23119697bfb1828260405162000b56929190620012bf565b60405180910390a18181945094505050509a509a98505050505050505050565b60025481565b600160009054906101000a900473ffffffffffffffffffffffffffffffffffffffff1681565b62000bac62000d6d565b73ffffffffffffffffffffffffffffffffffffffff1662000bcc620005eb565b73ffffffffffffffffffffffffffffffffffffffff161462000c25576040517f08c379a000000000000000000000000000000000000000000000000000000000815260040162000c1c906200125e565b60405180910390fd5b600073ffffffffffffffffffffffffffffffffffffffff168173ffffffffffffffffffffffffffffffffffffffff16141562000c98576040517f08c379a000000000000000000000000000000000000000000000000000000000815260040162000c8f90620011f8565b60405180910390fd5b8073ffffffffffffffffffffffffffffffffffffffff1660008054906101000a900473ffffffffffffffffffffffffffffffffffffffff1673ffffffffffffffffffffffffffffffffffffffff167f8be0079c531659141344cd1fd0a4f28419497f9722a3daafe3b4186f6b6457e060405160405180910390a3806000806101000a81548173ffffffffffffffffffffffffffffffffffffffff021916908373ffffffffffffffffffffffffffffffffffffffff16021790555050565b60056020528060005260406000206000915090505481565b600033905090565b6000818362000d8591906200135a565b905092915050565b6000818362000d9d9190620012fd565b905092915050565b610b57806200160e83390190565b60008135905062000dc481620015bf565b92915050565b60008151905062000ddb81620015d9565b92915050565b60008135905062000df281620015f3565b92915050565b60008151905062000e0981620015f3565b92915050565b60006020828403121562000e2257600080fd5b600062000e328482850162000db3565b91505092915050565b6000806000806000806000806000806101408b8d03121562000e5c57600080fd5b600062000e6c8d828e0162000db3565b9a5050602062000e7f8d828e0162000db3565b995050604062000e928d828e0162000de1565b985050606062000ea58d828e0162000de1565b975050608062000eb88d828e0162000de1565b96505060a062000ecb8d828e0162000de1565b95505060c062000ede8d828e0162000de1565b94505060e062000ef18d828e0162000de1565b93505061010062000f058d828e0162000de1565b92505061012062000f198d828e0162000de1565b9150509295989b9194979a5092959850565b60006020828403121562000f3e57600080fd5b600062000f4e8482850162000dca565b91505092915050565b60006020828403121562000f6a57600080fd5b600062000f7a8482850162000de1565b91505092915050565b60006020828403121562000f9657600080fd5b600062000fa68482850162000df8565b91505092915050565b62000fba8162001395565b82525050565b600062000fcf602683620012ec565b915062000fdc826200140e565b604082019050919050565b600062000ff6602b83620012ec565b915062001003826200145d565b604082019050919050565b60006200101d604283620012ec565b91506200102a82620014ac565b606082019050919050565b600062001044602083620012ec565b9150620010518262001521565b602082019050919050565b60006200106b604683620012ec565b915062001078826200154a565b606082019050919050565b6200108e81620013d5565b82525050565b6000602082019050620010ab600083018462000faf565b92915050565b6000604082019050620010c8600083018562000faf565b620010d7602083018462000faf565b9392505050565b6000606082019050620010f5600083018662000faf565b62001104602083018562000faf565b62001113604083018462001083565b949350505050565b60006101408201905062001133600083018d62000faf565b62001142602083018c62000faf565b62001151604083018b62001083565b62001160606083018a62001083565b6200116f608083018962001083565b6200117e60a083018862001083565b6200118d60c083018762001083565b6200119c60e083018662001083565b620011ac61010083018562001083565b620011bc61012083018462001083565b9b9a5050505050505050505050565b6000604082019050620011e2600083018562000faf565b620011f1602083018462001083565b9392505050565b60006020820190508181036000830152620012138162000fc0565b9050919050565b60006020820190508181036000830152620012358162000fe7565b9050919050565b6000602082019050818103600083015262001257816200100e565b9050919050565b60006020820190508181036000830152620012798162001035565b9050919050565b600060208201905081810360008301526200129b816200105c565b9050919050565b6000602082019050620012b9600083018462001083565b92915050565b6000604082019050620012d6600083018562001083565b620012e5602083018462000faf565b9392505050565b600082825260208201905092915050565b60006200130a82620013d5565b91506200131783620013d5565b9250827fffffffffffffffffffffffffffffffffffffffffffffffffffffffffffffffff038211156200134f576200134e620013df565b5b828201905092915050565b60006200136782620013d5565b91506200137483620013d5565b9250828210156200138a5762001389620013df565b5b828203905092915050565b6000620013a282620013b5565b9050919050565b60008115159050919050565b600073ffffffffffffffffffffffffffffffffffffffff82169050919050565b6000819050919050565b7f4e487b7100000000000000000000000000000000000000000000000000000000600052601160045260246000fd5b7f4f776e61626c653a206e6577206f776e657220697320746865207a65726f206160008201527f6464726573730000000000000000000000000000000000000000000000000000602082015250565b7f50726573616c65466163746f72793a3a7374616b653a20416c6c6f77616e636560008201527f20616d6f756e74206c6f77000000000000000000000000000000000000000000602082015250565b7f50726573616c65466163746f72793a3a63726561746550726573616c653a205360008201527f6f6674206361702063616e277420657863656564207468616e2068617264206360208201527f6170000000000000000000000000000000000000000000000000000000000000604082015250565b7f4f776e61626c653a2063616c6c6572206973206e6f7420746865206f776e6572600082015250565b7f50726573616c65466163746f72793a3a63726561746550726573616c653a205360008201527f7461727420626c6f636b2063616e277420657863656564207468616e20656e6460208201527f20626c6f636b0000000000000000000000000000000000000000000000000000604082015250565b620015ca8162001395565b8114620015d657600080fd5b50565b620015e481620013a9565b8114620015f057600080fd5b50565b620015fe81620013d5565b81146200160a57600080fd5b5056fe60806040523480156200001157600080fd5b5060405162000b5738038062000b578339818101604052810190620000379190620001e7565b600062000049620001b160201b60201c565b9050806000806101000a81548173ffffffffffffffffffffffffffffffffffffffff021916908373ffffffffffffffffffffffffffffffffffffffff1602179055508073ffffffffffffffffffffffffffffffffffffffff16600073ffffffffffffffffffffffffffffffffffffffff167f8be0079c531659141344cd1fd0a4f28419497f9722a3daafe3b4186f6b6457e060405160405180910390a35089600160006101000a81548173ffffffffffffffffffffffffffffffffffffffff021916908373ffffffffffffffffffffffffffffffffffffffff16021790555088600260006101000a81548173ffffffffffffffffffffffffffffffffffffffff021916908373ffffffffffffffffffffffffffffffffffffffff1602179055508760038190555086600481905550856005819055508460068190555083600781905550826008819055508160098190555080600a819055505050505050505050505062000349565b600033905090565b600081519050620001ca8162000315565b92915050565b600081519050620001e1816200032f565b92915050565b6000806000806000806000806000806101408b8d0312156200020857600080fd5b6000620002188d828e01620001b9565b9a505060206200022b8d828e01620001b9565b99505060406200023e8d828e01620001d0565b9850506060620002518d828e01620001d0565b9750506080620002648d828e01620001d0565b96505060a0620002778d828e01620001d0565b95505060c06200028a8d828e01620001d0565b94505060e06200029d8d828e01620001d0565b935050610100620002b18d828e01620001d0565b925050610120620002c58d828e01620001d0565b9150509295989b9194979a5092959850565b6000620002e482620002eb565b9050919050565b600073ffffffffffffffffffffffffffffffffffffffff82169050919050565b6000819050919050565b6200032081620002d7565b81146200032c57600080fd5b50565b6200033a816200030b565b81146200034657600080fd5b50565b6107fe80620003596000396000f3fe608060405234801561001057600080fd5b50600436106100cf5760003560e01c80639d76ea581161008c578063dddd133111610066578063dddd1331146101ce578063ec015297146101ec578063f2fde38b1461020a578063fb86a40414610226576100cf565b80639d76ea5814610174578063a4475ce414610192578063c0633f0b146101b0576100cf565b8063083c6323146100d457806348cd4cb1146100f2578063715018a6146101105780638b250eff1461011a5780638da5cb5b14610138578063906a26e014610156575b600080fd5b6100dc610244565b6040516100e991906106d1565b60405180910390f35b6100fa61024a565b60405161010791906106d1565b60405180910390f35b610118610250565b005b61012261038a565b60405161012f91906106d1565b60405180910390f35b610140610390565b60405161014d9190610676565b60405180910390f35b61015e6103b9565b60405161016b91906106d1565b60405180910390f35b61017c6103bf565b6040516101899190610676565b60405180910390f35b61019a6103e5565b6040516101a79190610676565b60405180910390f35b6101b861040b565b6040516101c591906106d1565b60405180910390f35b6101d6610411565b6040516101e391906106d1565b60405180910390f35b6101f4610417565b60405161020191906106d1565b60405180910390f35b610224600480360381019061021f91906105e9565b61041d565b005b61022e6105c6565b60405161023b91906106d1565b60405180910390f35b60085481565b60075481565b6102586105cc565b73ffffffffffffffffffffffffffffffffffffffff16610276610390565b73ffffffffffffffffffffffffffffffffffffffff16146102cc576040517f08c379a00000000000000000000000000000000000000000000000000000000081526004016102c3906106b1565b60405180910390fd5b600073ffffffffffffffffffffffffffffffffffffffff1660008054906101000a900473ffffffffffffffffffffffffffffffffffffffff1673ffffffffffffffffffffffffffffffffffffffff167f8be0079c531659141344cd1fd0a4f28419497f9722a3daafe3b4186f6b6457e060405160405180910390a360008060006101000a81548173ffffffffffffffffffffffffffffffffffffffff021916908373ffffffffffffffffffffffffffffffffffffffff160217905550565b60035481565b60008060009054906101000a900473ffffffffffffffffffffffffffffffffffffffff16905090565b60095481565b600260009054906101000a900473ffffffffffffffffffffffffffffffffffffffff1681565b600160009054906101000a900473ffffffffffffffffffffffffffffffffffffffff1681565b60065481565b60055481565b60045481565b6104256105cc565b73ffffffffffffffffffffffffffffffffffffffff16610443610390565b73ffffffffffffffffffffffffffffffffffffffff1614610499576040517f08c379a0000000000000000000000000000000000000000000000000000000008152600401610490906106b1565b60405180910390fd5b600073ffffffffffffffffffffffffffffffffffffffff168173ffffffffffffffffffffffffffffffffffffffff161415610509576040517f08c379a000000000000000000000000000000000000000000000000000000000815260040161050090610691565b60405180910390fd5b8073ffffffffffffffffffffffffffffffffffffffff1660008054906101000a900473ffffffffffffffffffffffffffffffffffffffff1673ffffffffffffffffffffffffffffffffffffffff167f8be0079c531659141344cd1fd0a4f28419497f9722a3daafe3b4186f6b6457e060405160405180910390a3806000806101000a81548173ffffffffffffffffffffffffffffffffffffffff021916908373ffffffffffffffffffffffffffffffffffffffff16021790555050565b600a5481565b600033905090565b6000813590506105e3816107b1565b92915050565b6000602082840312156105fb57600080fd5b6000610609848285016105d4565b91505092915050565b61061b816106fd565b82525050565b600061062e6026836106ec565b915061063982610739565b604082019050919050565b60006106516020836106ec565b915061065c82610788565b602082019050919050565b6106708161072f565b82525050565b600060208201905061068b6000830184610612565b92915050565b600060208201905081810360008301526106aa81610621565b9050919050565b600060208201905081810360008301526106ca81610644565b9050919050565b60006020820190506106e66000830184610667565b92915050565b600082825260208201905092915050565b60006107088261070f565b9050919050565b600073ffffffffffffffffffffffffffffffffffffffff82169050919050565b6000819050919050565b7f4f776e61626c653a206e6577206f776e657220697320746865207a65726f206160008201527f6464726573730000000000000000000000000000000000000000000000000000602082015250565b7f4f776e61626c653a2063616c6c6572206973206e6f7420746865206f776e6572600082015250565b6107ba816106fd565b81146107c557600080fd5b5056fea26469706673582212206087137d81158f171c6387082643df3611451039d0d499a71af4ca6400e5430364736f6c63430008040033a264697066735822122050cec3ecb2d6dcf366eac69d41777ddc58c793be879d1e42a0d644ec8f66425064736f6c63430008040033",
  "linkReferences": {},
  "deployedLinkReferences": {}
}